:100000000C94BA000C949E150C949E150C949E159D
:100010000C949E150C949E150C949E150C949E1594
:100020000C949E150C949E150C94D6140C949E154D
:100030000C949E150C949E150C949E150C949E1574
:100040000C949E150C949E150C949E150C949E1564
:100050000C949E150C94650E0C949E150C949E1594
:100060000C949E150C943A110C94CD110C949E1581
:100070000C949E150C949E150C949E150C949E1534
:100080000C949E150C949E150C949E150C949E1524
:100090000C946C110C94FB110C949E150C949E15F1
:1000A0000C949E150C949E150C949E150C949E1504
:1000B0000C949E150C949E150C949E150C949E15F4
:1000C0000C949E150C949E150C949E150C949E15E4
:1000D0000C949E150C949E150C949E150C949E15D4
:1000E0000C949E152C0A620A620A3B0A620A620A92
:1000F000620A620A550A620A520A4F0A620A620AD0
:100100005C0A620A620A620A1E0A620A620A620AD9
:10011000250A4C0A02000289800289028D002B4ABE
:10012000028D028E000517028E0298800C947C14BA
:100130000C94620A0C949C0D0C941E0A0C945C0A9C
:100140000C94250A0C940A140C9492020C947B08CB
:100150000C94C60E0C943B0A0C942C0A0C94520A74
:100160000C944C0A0C94550A0C948C0A0C94040CB4
:100170000C944F0A11241FBECFEFD1E2DEBFCDBFDA
:1001800000E00CBFE4E1F1E041E019C0B791A791B4
:1001900037912791079107FD0EC097918791EF0145
:1001A000F92FE82F0BBF07900D92A217B307D9F7CD
:1001B000FE011BBE04C01D92A217B307E1F7EC328B
:1001C000F40721F70E94B5090C943215F894FFCF7B
:1001D0000000000000000000002F000000000700E9
:1001E000070000147F147F1400242A7F2A12006263
:1001F000640813230036495522500000050300000F
:1002000000001C224100000041221C000014083E96
:1002100008140008083E0808000000A0600000085C
:1002200008080808000060600000002010080402B0
:10023000003E5149453E0000427F4000004261516E
:100240004946002141454B31001814127F10002708
:1002500045454539003C4A494930000171090503CB
:1002600000364949493600064949291E00003636FC
:10027000000000005636000000081422410000145F
:10028000141414140000412214080002015109063C
:1002900000324959513E007C1211127C007F4949BD
:1002A0004936003E41414122007F4141221C007FEE
:1002B00049494941007F09090901003E4149497AFC
:1002C000007F0808087F0000417F41000020404176
:1002D0003F01007F08142241007F40404040007FE2
:1002E000020C027F007F0408107F003E4141413E26
:1002F000007F09090906003E4151215E007F09196E
:1003000029460046494949310001017F0101003F6A
:100310004040403F001F2040201F003F4038403FEA
:10032000006314081463000708700807006151494E
:10033000454300007F41410000552A552A550000E1
:1003400041417F000004020102040040404040405F
:10035000000001020400002054545478007F4844F7
:10036000443800384444442000384444487F00382E
:100370005454541800087E0901020018A4A4A47C57
:10038000007F080404780000447D40000040808421
:100390007D00007F102844000000417F4000007C69
:1003A00004180478007C0804047800384444443875
:1003B00000FC242424180018242418FC007C0804C1
:1003C000040800485454542000043F444020003C9A
:1003D0004040207C001C2040201C003C4030403C21
:1003E000004428102844001CA0A0A07C00446454B1
:1003F0004C4400000877410000000063000000004A
:1004000041770800000804080804003A4040207AB8
:10041000003D4040403D002154545479007D12116C
:10042000127D003944444439003D4242423D0002BD
:1004300005020000007E01495573007C1010081C65
:0C044000003048204830005C6202625C22
:10044C00537472696E672073746F72656420696E81
:0D045C00205352414D0A002564002020006D
:10046900AE2000B0C8001040813FA1A6A83FA4D388
:0B04790000D5F0D922DA12DB208D1430
:10048400BC5F9C60A4618462B6639664B0659F6639
:08049400B5678968A969FFFF43
:10049C00427566666572206F766572666C6F772042
:0804AC006572726F723A2000C4
:1004B400537472696E672073746F72656420696E19
:0804C40020464C4153480A0098
:1004CC0068076C094C836A9074A07AC000806888B5
:0604DC0000846C82008127
:1004E20055415254204F76657272756E2045727274
:0504F2006F723A2000CA
:1004F70055415254204672616D65204572726F7284
:030507003A200097
:07050A00286E756C6C2900DE
:06051100286E696C290050
:0105170001E2
:10051800A3EAB0E0E2E9F2E00C949A134C01590125
:10052800C756DF4F488359836A83C959D040212C65
:10053800312C6E012BE8C20ED11C85E2782E2601E3
:1005480030E8632ECE018D569F4FC456DF4F9983F6
:100558008883CC59D0409C0140E8CF55DF4F288391
:1005680039834A83C15AD040C756DF4F4881C95999
:10057800D040C656DF4FB881CA59D040C556DF4F64
:100588007881CB59D040E42FFB2F572F0E94771545
:10059800662309F4D0C3CF57DF4F19821882C15898
:1005A800D0408FEF9FEFCD57DF4F99838883C35893
:1005B800D040CB57DF4F19821882C558D040E1E0B0
:1005C800F0E0EC0FFD1FC957DF4FF983E883C758E8
:1005D800D04020E830E0C757DF4F39832883C95817
:1005E800D040842F9B2FA72FE12CF12CFC015A2FF0
:1005F8000E94771561111DC0E114F10411F19701F2
:100608005B2F672FC4010E94D110C756DF4F888126
:100618009981AA81C959D0408E0D9F1DA11DF7FC53
:10062800AA95C756DF4F88839983AA83C959D040B2
:1006380008C00196A11D6532F9F23FEFE31AF30AEB
:10064800D5CFC756DF4F88819981AA81C959D04033
:10065800FC015A2F0E947715653209F05AC39C0194
:100668004A2F2F5F3F4F4F4FC256DF4F28833983A2
:100678004A83CE59D040C756DF4F288339834A83EF
:10068800C959D040C756DF4F88819981AA81C95975
:10069800D040FC015A2F0E9477156B3241F4CF5796
:1006A800DF4F28813981C158D04024600BC06C329B
:1006B800CCF06D3259F5CF57DF4F28813981C158B9
:1006C800D0402160CF57DF4F39832883C158D040AD
:1006D8000196A11DC756DF4F88839983AA83C959FC
:1006E800D040D0CF603241F4CF57DF4F28813981D5
:1006F800C158D0402860E6CF633291F4CF57DF4F1E
:1007080028813981C158D0402061DCCF603341F461
:10071800CF57DF4F28813981C158D0402260D2CFCE
:100728006A3299F50196A11DC756DF4F88839983D0
:10073800AA83C959D040D501ED91FC911197CF01F9
:1007480002968D939C9380819181CB57DF4F99833B
:100758008883C558D04097FF3FC0CF57DF4F2881C7
:100768003981C158D040B1E02B27CF57DF4F3983AB
:100778002883C158D040919581959109CB57DF4F77
:1007880099838883C558D04027C0BC018A2F0E940E
:100798005610CB57DF4F99838883C558D040C7562A
:1007A800DF4F88819981AA81C959D040FC015A2F0D
:1007B8000E947715062E000C770B605371096A307A
:1007C800710550F40196A11DC756DF4F88839983A0
:1007D800AA83C959D040E3CFCF57DF4F8881998189
:1007E800C158D04080FF07C08D7FCF57DF4F998316
:1007F8008883C158D040C756DF4F88819981AA8124
:10080800C959D040FC015A2F0E9477156E3209F061
:1008180059C0CD57DF4F19821882C358D0409C0168
:100828004A2F2F5F3F4F4F4FC756DF4F28833983DB
:100838004A83C959D040F901542F0E9477156A326A
:10084800D1F40296A11DC756DF4F88839983AA83E6
:10085800C959D040D501ED91FC911197CF0102966D
:100868008D939C9380819181CD57DF4F99838883A5
:10087800C358D04027C0842FB9010E945610CD57C5
:10088800DF4F99838883C358D040C756DF4F88818C
:100898009981AA81C959D040FC015A2F0E94771525
:1008A800062E000C770B605371096A30710550F4FD
:1008B8000196A11DC756DF4F88839983AA83C9591A
:1008C800D040E3CFCE0187569F4F0E94180F182FB4
:1008D800C756DF4F9881C959D040C656DF4F888127
:1008E800CA59D040C556DF4F5881CB59D040E92F5F
:1008F800F82F0E947715862F660F990B0E946815AE
:100908008936910509F45BC0B4F48336910509F47E
:1009180069C144F48532910509F4A4C18136910571
:1009280029F1B6C18436910509F449C08836910584
:100938000CF42FC1ADC18037910509F4CDC04CF43A
:100948008E36910509F41BC18F36910509F47DC0D7
:100958009FC18537910509F455C08837910509F479
:1009680097C08337910509F093C15BC1612F70E08F
:10097800A501C6010E94A612892B09F4BAC1C7565F
:10098800DF4F88819981AA81C959D0409C014A2F9B
:100998002F5F3F4F4F4FC756DF4F288339834A8316
:1009A800C959D040FC015A2F0E947715262FA6015D
:1009B800BE016F577F4FC4010E949B1597C1612FDD
:1009C80070E0950141E050E0C6010E94450B892B7B
:1009D80009F48FC1C756DF4F88819981AA81C95907
:1009E800D0400196A11DC756DF4F88839983AA83FB
:1009F800C959D040A601BE016F577F4FC4010E945C
:100A0800860A74C1612F70E0950140E050E0C6018C
:100A18000E94450B892B09F46CC1C756DF4F8881AA
:100A28009981AA81C959D0400196A11DC756DF4FA7
:100A380088839983AA83C959D040A601BE016F57FC
:100A48007F4FC4010E94C00E51C1612F70E0950113
:100A580040E050E0C6010E94450B892B09F449C1CA
:100A6800C756DF4F88819981AA81C959D04001961C
:100A7800A11DC756DF4F88839983AA83C959D040DF
:100A8800A601BE016F577F4FC4010E94960D2EC16B
:100A9800612F70E0950140E050E0C6010E94450BCF
:100AA800892B09F426C1C756DF4F88819981AA810D
:100AB800C959D0409C014A2F2F5F3F4F4F4FC7560F
:100AC800DF4F288339834A83C959D040FC015A2F04
:100AD8000E947715262F4BC0950140E050E060EF4B
:100AE80070E0C6010E94450B892B09F402C1C75664
:100AF800DF4F88819981AA81C959D0400196A11DEB
:100B0800C756DF4F88839983AA83C959D04086E0A6
:100B180021E135E040E0F901DE01AD56BF4F742F09
:100B28000E94F214D6012C9111963C9111971296BD
:100B38004C91129713965C91139714966C91149795
:100B480015967C91159716968C91169717969C91E9
:100B5800A0E00E94261551F400E010E0CF55DF4FC9
:100B6800288139814A81C15AD040BAC028E7A601F4
:100B7800BE016F577F4FC4010E947508B7C0612F2F
:100B880070E09501A1014E0D5F1DC6010E942A0D5E
:100B9800B0C0612F70E0A501C6010E94A612892B82
:100BA80009F4A7C0C756DF4F88819981AA81C9591E
:100BB800D0409C014A2F2F5F3F4F4F4FC756DF4F02
:100BC800288339834A83C959D040FC015A2F0E948F
:100BD8007715262FA601BE016F577F4FC4010E94CB
:100BE8009B1584C0103809F084C0C756DF4F888130
:100BF8009981AA81C959D0400196A11DC756DF4FD6
:100C080088839983AA83C959D040D501ED91FC9175
:100C18001197CF0102968D939C938081F601808372
:100C28005BC0103809F065C0C756DF4F88819981CD
:100C3800AA81C959D0400196A11DC756DF4F8883A4
:100C48009983AA83C959D040D501ED91FC91119798
:100C5800CF0103968D939C9320813181428100E0DE
:100C680010E03EC0103809F044C0C756DF4F8881F5
:100C78009981AA81C959D0400196A11DC756DF4F55
:100C880088839983AA83C959D040F601708224C009
:100C9800D6017C92C256DF4F288139814A81CE59CC
:100CA800D040C756DF4F288339834A83C959D0407B
:100CB800CF57DF4F19821882C158D040CB57DF4F2A
:100CC80019821882C558D0408FEF9FEFCD57DF4F5C
:100CD80099838883C358D04001E010E0462D9201E3
:100CE800BE016F577F4FC4010E94000E8E0D9F1DDD
:100CF80011C0C756DF4F88819981AA81C959D04050
:100D08000196A11DC756DF4F88839983AA83C959C5
:100D1800D040C7017101E80EF91EE214F3044CF447
:100D28008FE490E090930202809301028FEF9FEF8F
:100D380003C0170119CCC101CD55DF4FE2E10C9476
:020D4800D113C5
:100D4A00CF92DF92EF92FF920F931F93CF93DF938D
:100D5A00CDB7DEB76D970FB6F894DEBF0FBECDBF25
:100D6A00893001F118F4883039F052C08A30E9F13B
:100D7A008D3009F447C04CC003E812E0F8018081C5
:100D8A0090918D026181891B0E94581580E20E9410
:100D9A00A506F801808190918D026181891B0E94CC
:100DAA0058158FC18091830290918D02292F30E0CE
:100DBA00220F331F220F331FB901680F711D45E13E
:100DCA0050E08A01021B130B6017710740F4990F58
:100DDA00990F60918402890F0E94581572C160911F
:100DEA00840285E10E9458156CC180918402873083
:100DFA0008F067C160918D02680F809183020E949A
:100E0A0058155FC16091840280E00E94581559C14B
:100E1A00A0918302AA3708F054C1803208F451C164
:100E2A00805225E834E040E0F90124918217C8F4A1
:100E3A0032C0440F551F9A0140E02C573B4F4F4F89
:100E4A00642FA901FA01449150E040525109682FD8
:100E5A0070E04617570719F4F801849119C09F5F8B
:100E6A0001C090E0492F50E06A01CC0CDD1CFFEF75
:100E7A00CF1ADF0AE12C2E2D86010C571B4F2F4F5C
:100E8A006801E22E8601F60164916F3F91F68FEFB9
:100E9A008F3F09F416C190918D02923009F0E2C099
:100EAA00B0E01C96A138B10508F00BC110E057C09C
:100EBA00612F70E0FB01EE0FFF1F21E030E02C0FE5
:100ECA003D1FE20FF31F15861486282F30E06901B3
:100EDA00CC0CDD1CC20ED31ECC0CDD1CC60ED71EDC
:100EEA00960140E020533E4F4F4FF901C49090E0E5
:100EFA0033C0E92FF0E02C2D30E0092E02C03595E1
:100F0A0027950A94E2F720FF26C0EE0FFF1F21E083
:100F1A0030E079010E2E02C0EE0CFF1C0A94E2F7B3
:100F2A00DB01AA0FBB1F41E050E04C0F5D1FA40F6D
:100F3A00B51F1C964D915C911D974E295F293196DC
:100F4A0002C0220F331FEA95E2F7242B352B1D9698
:100F5A003C932E931C979F5F983058F21F5F163070
:100F6A0008F4A6CF20E015C0822F90E0880F991FC1
:100F7A00E1E0F0E0EC0FFD1FE80FF91F3485308344
:100F8A000196E1E0F0E0EC0FFD1FE80FF91F308356
:100F9A002F5F263048F36CE070E0CE0101960E9484
:100FAA008212E3E8F2E081818F54898F81E28A8F8D
:100FBA00808192E0980F9F709B8F90E00296807FCD
:100FCA00992795958795959587959595879595955B
:100FDA008795805F8C8F8FE78D8F65E0CE0149966C
:100FEA000E94231320E015C0822F90E0880F991FDA
:100FFA00E1E0F0E0EC0FFD1FE80FF91F35853083C3
:10100A000196E1E0F0E0EC0FFD1FE80FF91F3083D5
:10101A002F5F263048F36CE070E0CE0101960E9403
:10102A00821203E812E0F80181818055898F80815C
:10103A009EE0980F9F709B8F90E00E96807F992775
:10104A00929582958F7089279F708927805F8C8FF0
:10105A0065E0CE0149960E942313F8018081845FDE
:10106A0080832FC0B0E01696A138B10550F590E004
:10107A001BC0482F50E0292F30E0BA01660F771FB6
:10108A00460F571F440F551F420F531F60E040532E
:10109A005E4F6F4FFA014491E1E0F0E0EC0FFD1F63
:1010AA00E20FF31F40839F5F963018F366E070E00B
:1010BA00CE0101960E948212E3E8F2E080818A5F03
:1010CA0080836D960FB6F894DEBF0FBECDBFDF9159
:1010DA00CF911F910F91FF90EF90DF90CF900895DD
:1010EA00A4E1B0E0EBE7F8E00C949A1398878F83B9
:1010FA007A8369835C8B4B8B122FDB011296ED91FD
:10110A00FC91139714962D913C9115973E832D834C
:10111A00ED90FC90119716962D903C901797F7FD3D
:10112A0003C0E894E1F802C0E1E0F0E0C701807191
:10113A0099279A878987E4FE1FC0AB89BC892C91BD
:10114A0011963C91119712964C91129713965C91B5
:10115A00139714966C91149715967C911597169679
:10116A008C91169717969C91A0E00E94261521F063
:10117A008D819E81029702C08D819E819701287080
:10118A0033273C872B87E3FC0197AB89BC894C90BA
:10119A0011965C90119712966C90129713967C9008
:1011AA00139714968C90149715969C9015971696EB
:1011BA00AC9016971796BC90A981BA811896CD90D3
:1011CA00DC901997B1E0CB1AD108D101AC0DBD1D45
:1011DA001C929C838B839F01281B390B3E872D878A
:1011EA00C70182709927988B8F87812F012E000C57
:1011FA00990BDC01A154B109BA8BA98B32E0C31651
:10120A00D10434F489859A85892B09F04CC073C0BE
:10121A009201A301B401C501A0E00E94261581F143
:10122A00B1E0CB1AD108C2018F7099278A30910593
:10123A0014F4C09602C0895A9F4FE989FA897A97AD
:10124A0048F49C012062215631092A31310510F4F3
:10125A000E944F15F101EC0DFD1D80832B813C810D
:10126A00215031093C832B839201A301B401C501AA
:10127A0004E00E94611329013A014B015C01BECFCF
:10128A008D859E85AB81BC818A0F9B1F1816190616
:10129A003CF21A161B060CF0B5CFEF85F889EF2B36
:1012AA0009F0BECFAFCFAB89BC892C9111963C9186
:1012BA00119712964C91129713965C911397149664
:1012CA006C91149715967C91159716968C91169792
:1012DA0017969C91A0E00E94261569F0F101EC0D89
:1012EA00FD1D31971083B2E0CB1AD108F101EC0D44
:1012FA00FD1D80E38083EB85FC85EF2B41F0F1E057
:10130A00CF1AD108F101EC0DFD1D80E28083A9817D
:10131A00BA8118962D913C911997215031092C19AF
:10132A003D09C20CD31CA60160E80D811E818F8184
:10133A0098850E94A30C9C01EF81F8858081918198
:10134A0090FF09C0A981BA8112968D919C91139739
:10135A00821793070CF4C9016496E2E10C94D11345
:10136A00CF93DF93CDB7DEB761970FB6F894DEBFA0
:10137A000FBECDBF0E94561278948FEA0E949C102D
:10138A0088E090E00E94B6136CE474E080E00E946A
:10139A004A1464EB74E080E00E94EC131F9286E822
:1013AA008F9383E694E0A0E0AF939F938F938E018F
:1013BA000F5F1F4F1F930F930E947614B80180E8A6
:1013CA000E944A148DE00E9461140FB6F894DEBFA1
:1013DA000FBECDBF80918B028093B40080918902A9
:1013EA008093B3000E9441138C0190FDF3CF94FFC8
:1013FA0005C067EF74E080E00E94EC1313FF05C09C
:10140A0062EE74E080E00E94EC1311FF05C06CE903
:10141A0074E080E00E94EC13F801E156F109E8312A
:10142A00F10508F04AC08827EE58FF4F8F4F0C94F9
:10143A0060156BE872E089E892E00E9404133DC0EF
:10144A006BE872E089E892E00E94E51236C08BE808
:10145A0092E00E9400150E9470150E94C8140E9412
:10146A00BA14109286021092850227C089E892E087
:10147A000E940D150E9470150E94C8140E94BA1489
:10148A0081E090E0909386028093850216C00E94C4
:10149A00AB1413C00E947E1510C00E9484150DC0A3
:1014AA006BE872E089E892E00E94C61206C06BE817
:1014BA0072E089E892E00E947D130E948A15809169
:1014CA008A028F93809189028F9383E694E0A0E049
:1014DA00AF939F938F938E01085F1F4F1F930F93B4
:1014EA000E947614B80180E80E94331466E674E01C
:1014FA0080E00E9433140FB6F894DEBF0FBECDBF52
:02150A0069CFA7
:10150C00ADE0B0E0ECE8FAE00C949A139A87898786
:10151C007C836B83FA01DB011296CD90DC901397E0
:10152C0014968D919C9115979E838D83ED90FC90D4
:10153C001197FA82E98216960D90BC91A02DB8876E
:10154C00AF83208031804280538064807580868098
:10155C0097808101B42DF52DE62D7B868C869D869A
:10156C009101A201B301C401A0E00E9426154CF424
:10157C000E949B148901B42FF52FE62F7B878C8753
:10158C009D87D7FC04C0E894E1F8FA82E9829101C6
:10159C00A201B301C401A0E0ED80FE800E942615DB
:1015AC001CF0898182FF04C081E0E81AF10805C0B3
:1015BC0083FF03C091E0E91AF108CE0101965C01AA
:1015CC008AE0C82ED12C2B2F3F2F4E2F5B856C859C
:1015DC007D858B819C810E94FE0BFC019101A201F7
:1015EC00B301C401A0E00E9426151CF0898182FF82
:1015FC0012C031970F8118850E0F1F1F9101A20188
:10160C00B301C401A0E00E94261514F08BE201C0C6
:10161C008DE2D80108C083FF07C03197AF81B88530
:10162C00AE0FBF1F80E28C93E980FA80AB81BC8146
:10163C0018962D913C911997215031092E1B3F0B77
:10164C008F819885E80FF91FAF0160E80D811E812D
:10165C0089859A850E94A30C9C01A985BA858D91D8
:10166C009C9190FF07C0EB81FC8182819381821752
:0E167C0093070CF4C9012D96E2E10C94D113F2
:10168A000F931F93CF93DF93FC01D901683871053B
:10169A0031F194F461387105B1F12CF460387105B7
:1016AA0009F478C09FC06238710509F459C06438DA
:1016BA00710509F46FC096C0603A710509F448C013
:1016CA002CF46039710509F44BC08CC0603C71057B
:1016DA0009F476C0603F710509F472C083C0CD91E8
:1016EA00DC911197CE0102968D939C93452B39F08C
:1016FA009881892F880F880B908381835BC08881AA
:10170A008083118268C0CD91DC911197CE01049635
:10171A008D939C93452B99F088819981AA81BB81ED
:10172A00AC01BD01770F440B542FBA01808391831A
:10173A00A283B383448345834683478328C00881B1
:10174A0019812A813B81008311832283338345C017
:10175A00CD91DC911197CE0102968D939C9323C073
:10176A00CD91DC911197CE0108968D939C93788147
:10177A0069815A814B813C812D819E818F81708341
:10178A00618352834383348325839683878381E0ED
:10179A0090E02AC0CD91DC911197CE0102968D93EB
:1017AA009C93452BA1F099812881892F880F880B5A
:1017BA002083918382838383848385838683E6CF90
:1017CA00CD91DC911197CE0102968D939C9308815D
:1017DA001981008311831282138214821582168260
:1017EA001782D5CF80E090E0DF91CF911F910F91C2
:0217FA00089550
:1017FC00A2E1B0E0E4E0FCE00C949A13FC010A8B4B
:10180C001B832C83732E642E552E462E7D83CC8603
:10181C00D886BF82AE82868197819B878A87D501C5
:10182C004D915C91228133818085918501971C01BA
:10183C0037FF02C021E030E0EA85FB85E80FF91F95
:10184C0010824701E1E0F0E0FA83E983C9018E19C7
:10185C009F099E878D87DA01A270BB27B88BAF8753
:10186C00B885BB0FBB0BB98B1214130474F0A98190
:10187C00BA81AB2B09F05CC0AE81BF818D919C917C
:10188C0011978F7E8D939C9353C02A893B814C81F9
:10189C00572D662D752D842D9D81A0E00E94261557
:1018AC00B1F1E1E02E1A3108FC85F987AF2EB8842E
:1018BC00C988DC2CEC2CFC2C0C2D1C2D2A893B8192
:1018CC004C81572D662D752D842D9D810E94E4141D
:1018DC00C90129839A83EA85FB85E20DF31D805D9E
:1018EC00808381E0881A91082A893B814C81572D8D
:1018FC00662D752D842D9D810E94E6142A8B3B83C9
:10190C004C83752E662E572E482E9D83ADCF8D851C
:10191C009E85880D991D181619061CF218141904A9
:10192C000CF0A5CFEF85F889EF2B09F0BACF9FCF3C
:0A193C00C1016296E2E10C94D113A0
:101946002F923F924F926F927F928F92AF92BF9259
:10195600CF92DF92EF92FF920F931F93CF93DF9375
:10196600CDB7DEB766970FB6F894DEBF0FBECDBF14
:101976005C013A01862E6901C701817099279C8B0B
:101986008B8BE0FC1DC020173107D4F47801EC18CE
:10199600FD08FE8AED8AA70191E1E916F10410F02F
:1019A60040E150E060E270E0CE0101969A8B898BAF
:1019B6000E94461589899A891C0120E8422E0BC08F
:1019C6009601682DA301C5010E94D110C016D1064B
:1019D600ECF2C60125C090E1E916F10458F020E1C9
:1019E60030E0642DA101C5010E94D11080E1E81A02
:1019F600F108F1CF2D893E892F70332789899A897D
:101A0600AC0160E8C5010E94D1108B899C89892BA5
:101A160031F49601682DA301C5010E94D110C801B9
:101A260066960FB6F894DEBF0FBECDBFDF91CF919D
:101A36001F910F91FF90EF90DF90CF90BF90AF90E6
:0E1A46008F907F906F904F903F902F9008955B
:101A5400CF93DF93DC01F90164387105D9F164F4A3
:101A64006138710521F16238710509F440C06038AC
:101A7400710509F054C02EC060397105C1F184F4B8
:101A84006838710509F04BC0C081D181CE0102963E
:101A940091838083E881F981ED93FC9340833CC07A
:101AA400603A7105B9F0603C7105A1F038C0C0819D
:101AB400D181CE01029691838083E881F981ED93EF
:101AC400FC93052E000C660B770B408351836283D5
:101AD400738322C0C081D181CE0102969183808319
:101AE400E881F981ED93FC935183408315C0C08153
:101AF400D181CE01029691838083E881F981ED93AF
:101B0400FC9351834083852F880F880B82838383C2
:101B1400848385838683878381E090E002C080E0AC
:081B240090E0DF91CF910895DC
:101B2C00A2E0B0E0ECE9FDE00C949A131C014B012F
:101B3C00FA01DB0112962D913C91139714964D905E
:101B4C005C9015978D919C9111979A838983169629
:101B5C006D907C90179737FD03C08D7F9A83898396
:101B6C000081118122813381448155816681778185
:101B7C00FE0131965F0188E0C82ED12C7201C401A0
:101B8C000E94FE0B298124FF06C00197F301E80F88
:101B9C00F91F20E32083298123FF06C00197F3015D
:101BAC00E80FF91F20E22083E980FA80D40118960F
:101BBC002D913C91199721503109281B390B860D19
:101BCC00971DAC0160E88201C1010E94A30C9C012D
:101BDC00F1018081918190FF08C0D40112968D9102
:101BEC009C911397821793070CF4C9012296E2E19A
:041BFC000C94D11361
:101C00002F923F924F926F927F928F92AF92BF929C
:101C1000CF92DF92EF92FF920F931F93CF93DF93B8
:101C2000CDB7DEB727970FB6F894DEBF0FBECDBF96
:101C30006C017B013901842E98018AE0282E85E011
:101C4000382E80E0482E87E0F101AE014F5F5F4FF4
:101C5000DA01742D0E94F214F70102811381A4802D
:101C6000B580E080F18061147104810419F43A01B7
:101C7000F0E88F2E2115310529F4882DB3010E943B
:101C800089149C0117FD04C00217130708F498017A
:101C90008501682DA301C6010E94A30C27960FB6EB
:101CA000F894DEBF0FBECDBFDF91CF911F910F9192
:101CB000FF90EF90DF90CF90BF90AF908F907F908C
:0A1CC0006F904F903F902F90089511
:101CCA001F920F920FB60F9211248F939F938091B8
:101CDA00850290918602892B09F58091870290915D
:101CEA008802499724F484B38F7D84BB03C084B3EC
:101CFA00806284BB809187029091880201969093BA
:101D0A008802809387028091870290918802C39704
:101D1A005CF1109288021092870226C08091850297
:101D2A0090918602019701F580918702909188022D
:101D3A00499724F485B18F7B85B903C085B1806446
:101D4A0085B98091870290918802019690938802C2
:101D5A00809387028091870290918802C39724F02A
:101D6A0010928802109287029F918F910F900FBE56
:061D7A000F901F90189568
:101D8000A2E0B0E0E6ECFEE00C949A133C014B01BB
:101D9000FA01DB0112962D913C91139714964D9008
:101DA0005C9015978D919C9111979A8389831696D3
:101DB0002D903C90179737FD03C08D7F9A838983C0
:101DC000008111812281338144815581668177812F
:101DD000FE0131965F018AE0C82ED12C7201C40148
:101DE0000E94FE0BE980FA80D40118962D913C9157
:101DF000199721503109281B390B820D931DAC0115
:101E000060E88201C3010E94A30C9C01F301808160
:101E1000918190FF08C0D40112968D919C911397E7
:101E2000821793070CF4C9012296E2E10C94D113B6
:101E3000CF92DF92EF92DC0190E0292F30E0220F69
:101E4000331F6901032E000CEE086E2DA6014453CA
:101E50005B4F6F4F6A01E62EFA015E2D0E947715E7
:101E6000862F61110EC02F5F3F4F032E000C440BD5
:101E700024533B4F4F4FF901542F0E947715862F63
:101E800025C0CD90DD90EC901297F6015E2D0E945A
:101E90007715861316C02F5F3F4F032E000C440B9F
:101EA00024533B4F4F4FF901542F0E947715962F23
:101EB0005FEFC51AD50AE50ACD92DD92EC92129732
:101EC00001C09F5F9B3008F4B8CF892FEF90DF905F
:041ED000CF90089512
:101ED4006F927F928F92EF92FF920F931F93CF9303
:101EE400DF93CDB7DEB761970FB6F894DEBF0FBEB0
:101EF400CDBFFE01319651E1DF011D925A95E9F7FC
:101F0400A2E0B1E0BA83A9839C838B8377FF09C0E5
:101F14008FE490E090930202809301028FEF9FEF91
:101F240019C03901842E7C01615071097F836E834D
:101F34009801682DA301CF010E9404144885598596
:101F44002E813F814217530708F49A01F701E20FEB
:101F5400F31F108261960FB6F894DEBF0FBECDBF9B
:101F6400DF91CF911F910F91FF90EF908F907F9011
:041F74006F900895CD
:101F780088249924F401E401B0E49F93AA279A15D0
:101F88008B049C04ED05FE05CF05D007A10798F446
:101F9800AD2FDC2FCF2FFE2FE92D982C892E982FCF
:101FA800872F762F652F542F432F322F2227B85093
:101FB80031F7BF9127C01B2EBF91BB27220F331FBC
:101FC800441F551F661F771F881F991F881C991C5F
:101FD800EE1FFF1FCC1FDD1FAA1FBB1F8A149B0407
:101FE800EC05FD05CE05DF05A007B10748F08A1806
:101FF8009B08EC09FD09CE09DF09A00BB10B216094
:102008001A94E1F62EF49401AF01BE01CD01000C43
:02201800089529
:10201A000F931F93CF93DF93DB012D913C9111977F
:10202A0030FF25C017964D915C91189715962D9102
:10203A003C9116974217530778F41296ED91FC914A
:10204A001397808312962D913C9113972F5F3F4FE0
:10205A0013963C932E93129717962D913C911897AD
:10206A002F5F3F4F18963C932E93179715C01D96D6
:10207A00ED91FC911E97309719F48FEF9FEF0CC0EA
:10208A008B01EC011995892BC1F7F801878190859D
:10209A00019690878783CE01DF91CF911F910F918F
:0220AA00089597
:1020AC00CF939B01482FF901542F0E947715603272
:1020BC00B9F1862F062E000C990B0997059780F124
:1020CC006B3249F5A0E0B0E02F5F3F4F4F4F02C09D
:1020DC00A0E0B0E080E090E0CAE0F901542F0E944B
:1020EC007715062E000C770B605371096A30710559
:1020FC0060F4C89FF001C99FF00D11242F5F3F4F72
:10210C004F4FCF01861B970BE8CFAB2B69F4919502
:10211C008195910909C06D32D9F6A1E0B0E0D4CF18
:0C212C002F5F3F4F4F4FBFCFCF91089562
:102138001F93CF93DF93CDB7DEB76C970FB6F894A4
:10214800DEBF0FBECDBF182F0E943D1540E011C065
:10215800242F30E0C901A0E087599B4FAF4FFC0105
:102168008491E1E0F0E0EC0FFD1FE20FF31F8083A4
:102178004F5F4B3168F31C8F6CE1CE0101960E94D2
:1021880023130E949E116C960FB6F894DEBF0FBE03
:0A219800CDBFDF91CF911F91089594
:1021A2006F927F928F92CF92DF92EF920F931F9353
:1021B200CF93DF938C016A01E62EE9013A01862E64
:1021C200620E731E811C37FD8A94C614D704E8047C
:1021D20081F0F6015E2D0E947715862FB801082E38
:1021E200000C990B0E940D108FEFC81AD80AE80A4A
:1021F200ECCFCE01DF91CF911F910F91EF90DF9045
:0A220200CF908F907F906F900895A9
:10220C00CF93DF9300D00F920F92CDB7DEB781380A
:10221C0018F5683008F5E3E8F2E0808361836055D7
:10222C00698391E29A8392E0980F9F709B8390E070
:10223C000296807F99279595879595958795959585
:10224C00879595958795805F8C838FE78D8365E067
:10225C00CE0101960E9423130F900F900F900F90B8
:08226C000F90DF91CF9108955E
:102274001F920F920FB60F9211240BB60F922F9349
:102284008F939F93EF93FF938091C0002091C6009A
:102294008C71E0919502EF5FEF7190919402E917D0
:1022A40039F0E0939502F0E0ED5BFD4F208301C02F
:1022B40082E090919302892B80939302FF91EF9196
:1022C4009F918F912F910F900BBE0F900FBE0F9087
:0422D4001F901895AA
:1022D8001F920F920FB60F9211240BB60F922F93E5
:1022E8008F939F93EF93FF938091C8002091CE0026
:1022F8008C71E0919002EF5FEF7190918F02E91776
:1023080039F0E0939002F0E0ED5FFD4F208301C0CB
:1023180082E090918E02892B80938E02FF91EF913B
:102328009F918F912F910F900BBE0F900FBE0F9022
:042338001F90189545
:10233C001F93CF93DF93CDB7DEB7C058D1090FB63B
:10234C00F894DEBF0FBECDBFFE01319680E8DF01F1
:10235C001D928A95E9F710E00BC0612F80E00E9476
:10236C00581560E870E0CE0101960E9482121F5F42
:10237C00183098F30E948A15C058DF4F0FB6F894A6
:0E238C00DEBF0FBECDBFDF91CF911F91089530
:10239A001F920F920FB60F9211240BB60F928F93C2
:1023AA009F93EF93FF9390919702809196029817CB
:1023BA0069F0E0919602EF5FEF71E0939602F0E028
:1023CA00ED59FD4F80818093C60005C0E1ECF0E035
:1023DA0080818F7D8083FF91EF919F918F910F90E4
:0C23EA000BBE0F900FBE0F901F901895B7
:1023F6001F920F920FB60F9211240BB60F928F9366
:102406009F93EF93FF939091920280919102981778
:1024160069F0E0919102EF5FEF71E0939102F0E0D5
:10242600ED5DFD4F80818093CE0005C0E9ECF0E0C4
:1024360080818F7D8083FF91EF919F918F910F9087
:0C2446000BBE0F900FBE0F901F9018955A
:1024520094EA9093BC0020E431E009C02150310994
:1024620031F480910002816080930002089590917E
:10247200BC0099231CF02115310581F78093BB0024
:1024820084E88093BC0080E491E008C0019731F4B5
:102492008091000282608093000208952091BC0026
:0A24A200222314F0009791F708952B
:1024AC0088E38DB980E184B988E4809301011092AE
:1024BC00040117B883B3806283BB84B1806484B990
:1024CC00ECE6F0E080818260808380818460808390
:1024DC008BB382608BBBE8E6F0E080818260808306
:1024EC008BB381608BBB808181608083EBE6F0E0F5
:0824FC00808182608083089555
:10250400EF92FF920F931F93CF93DF937C018B0184
:1025140088E70E94291280E40E941C14C0E0D0E0E5
:1025240007C0F701EC0FFD1F80810E941C14219647
:10253400C017D107B0F30E949715DF91CF911F9177
:082544000F91FF90EF90089544
:10254C00FA0160387105CCF0623871051CF0633803
:10255C00710599F4A081B1819D012C5F3F4F3183AE
:10256C0020834D915D916D917C91FC014083518351
:10257C006283738381E090E0089580E090E0089599
:10258C00FB01DC012D913C91273E31052CF0408163
:10259C005181473E51055CF4275E3F4FDC012D9382
:1025AC003C938081918149969183808308952FEF8C
:0E25BC0030E0DC012D933C93318320830895A1
:1025CA002DE730E0FC0131832083FB013183208336
:1025DA00E0EBF0E08081836A8083E1EBF0E08081C8
:1025EA00846080838EB18F7E8EB98EB180628EB9FF
:0E25FA000E9470150E94C8140E949315089547
:102608002DE730E0FC0131832083FB0131832083F7
:10261800E0EBF0E08081836A8083E1EBF0E0808189
:10262800846080838EB180618EB98EB18F7D8EB9C2
:0E2638000E9470150E948F150E94BA1408951A
:102646000F931F93CF93DF938C01D62F88E70E94B9
:10265600291280E00E941C14C0E007C0F801EC0FAC
:10266600F11D80810E941C14CF5FCD17B8F30E9424
:0C2676009715DF91CF911F910F910895EF
:1026820090919502809194029817A9F090919402EA
:102692009F5F9F71E92FF0E0ED5BFD4F20818091FC
:1026A2009302909394021092930290E0982F8827BD
:0C26B200820F911D089580E091E00895D2
:1026BE0097FB10F8169400080F93083098F0085006
:1026CE00232F342F452F562F672F782F892F902D9C
:1026DE00F4CF059497958795779567955795479578
:0C26EE00379527950A95AAF70F910895DB
:1026FA00FB01DC012D913C91293131052CF44081FB
:10270A005181493151055CF029513109DC012D9380
:10271A003C93808191814997918380830895DC015C
:0A272A001D921C9211821082089586
:102734002F923F924F925F926F927F928F929F92CD
:10274400AF92BF92CF92DF92EF92FF920F931F93BB
:10275400CF93DF93CDB7DEB7CA1BDB0B0FB6F8946C
:08276400DEBF0FBECDBF1994CA
:10276C001092970210929602109295021092940277
:10277C00282F392F33231CF422E02093C0009078AB
:10278C009093C5008093C40088E98093C10086E0D3
:06279C008093C2000895C5
:1027A2002A88398848885F846E847D848C849B84DF
:1027B200AA84B984C884DF80EE80FD800C811B81ED
:1027C200AA81B981CE0FD11D0FB6F894DEBF0FBE1C
:0627D200CDBFED010895EA
:1027D800CF92DF92EF92A82FCB0104C00E94611420
:1027E800AE2DC6016C01EA2E2FEFC21AD20AE20AF8
:1027F800FC0184918111F2CFEF90DF90CF90089582
:10280800A2E0B0E0EAE0F4E10C94A8138C013A836A
:1028180029839E012F5F3F4F0E948C02F80120817F
:1028280024FF02C08FEF9FEF2296E4E00C94DF13A1
:102838008093BB0084E88093BC0080E491E008C0EA
:10284800019731F48091000284608093000208951A
:0E2858002091BC00222314F0009791F7089500
:10286600CF92DF92EF926B01E82E07C08FEFC81A66
:10287600D80AE80A862F0E94A506F6015E2D0E9458
:0E28860077156111F3CFEF90DF90CF9008959A
:10289400CF92DF92EF926B01E82E07C08FEFC81A38
:1028A400D80AE80A862F0E946114F6015E2D0E9460
:0E28B40077156111F3CFEF90DF90CF9008956C
:1028C200209197022F5F2F71909196022917E1F3C1
:1028D200E22FF0E0ED59FD4F808320939702E1EC67
:0A28E200F0E0808180628083089599
:1028EC00A0E0B0E0ECE7F4E10C94AA139E01255FA4
:1028FC003F4F488559856A858E819F810E941A15A4
:06290C00E2E00C94E1136F
:102912009B01482FA82FCB01FC015A2F0E9477154B
:10292200662319F00196A11DF7CF642FA901841B1C
:04293200950B089564
:102936006095709580959095309540955095219528
:102946003F4F4F4F5F4F6F4F7F4F8F4F9F4F0895B2
:10295600E0EBF0E080818F7D808380818F778083BC
:0E2966000E9493150E9470150E94C8140895D7
:1029740084B5806884BD85B5856085BD8FEF87BDCE
:0C298400EEE6F0E0808182608083089520
:1029900084B58F7784BD85B58B7F85BD8FEF87BD6F
:0C29A000EEE6F0E080818D7F80830895DA
:1029AC001F920F920FB60F9211241092B300109237
:0C29BC00B4000F900FBE0F901F901895F4
:1029C800689401C0E8948F929F92CF93DF930E94FE
:0C29D800BC0FDF91CF919F908F9008956D
:1029E400992777FD06C07BBF07900D920197E1F709
:0C29F400089501900D920197E1F70895FD
:102A0000FC0120813181332314F42F5F3F4F359532
:0A2A10002795FC013183208308950F
:102A1A00FC0120813181332314F42F5F3F4F359518
:0A2A2A002795FC01318320830895F5
:102A34000F931F9389019A01462F6FEF7FE70E943E
:082A44006A0F1F910F91089524
:102A4C000024A7FD00942A173005400550056005A9
:082A5C00700580059005089546
:102A6400EC010E94A3150E94A215CE010E94A41598
:062A7400CE010E94A01536
:102A7A001092B90088E48093B80084E08093BC0087
:022A8A000895AD
:102A8C00FC01480F591FE417F50711F06193FBCFB8
:022A9C0008959B
:102A9E009C01215631092A31310510F48F75992781
:022AAE00089589
:102AB000982F990F980F892F880F0E94061108955B
:102AC000EE0FFF1F881F8BBF0790F691E02D199422
:102AD0009C01215431092A31310508F4806208959E
:0E2AE00085B18F7B85B984B38F7D84BB08954B
:0E2AEE0057FD03C05BBF679108956081089596
:0C2AFC00E2E0F1E08081886080830895B2
:0C2B0800E2E0F1E08081877F8083089587
:0A2B140060E080E00E94581508956B
:082B1E008EB188608EB90895A4
:082B26008EB1877F8EB908957E
:082B2E0084E98093BC000895C6
:062B360080E090E008952C
:042B3C000C940000F5
:042B40000E94E60009
:022B44000895F2
:022B46000895F0
:022B48000895EE
:022B4A00FF008A
:022B4C00FF0088
:00000001FF
